{
  "contractName": "Lec2",
  "abi": [
    {
      "inputs": [],
      "name": "name",
      "outputs": [
        {
          "internalType": "string",
          "name": "",
          "type": "string"
        }
      ],
      "stateMutability": "view",
      "type": "function"
    },
    {
      "inputs": [],
      "name": "testId",
      "outputs": [
        {
          "internalType": "uint256",
          "name": "",
          "type": "uint256"
        }
      ],
      "stateMutability": "view",
      "type": "function"
    },
    {
      "inputs": [],
      "name": "getName",
      "outputs": [
        {
          "internalType": "string",
          "name": "",
          "type": "string"
        }
      ],
      "stateMutability": "nonpayable",
      "type": "function"
    }
  ],
  "bytecode": "0x60806040526040518060400160405280600e81526020017f48656c6c6f20436f6e74726163740000000000000000000000000000000000008152506001908161004891906102ab565b5034801561005557600080fd5b5061037d565b600081519050919050565b7f4e487b7100000000000000000000000000000000000000000000000000000000600052604160045260246000fd5b7f4e487b7100000000000000000000000000000000000000000000000000000000600052602260045260246000fd5b600060028204905060018216806100dc57607f821691505b6020821081036100ef576100ee610095565b5b50919050565b60008190508160005260206000209050919050565b60006020601f8301049050919050565b600082821b905092915050565b6000600883026101577fffffffffffffffffffffffffffffffffffffffffffffffffffffffffffffffff8261011a565b610161868361011a565b95508019841693508086168417925050509392505050565b6000819050919050565b6000819050919050565b60006101a86101a361019e84610179565b610183565b610179565b9050919050565b6000819050919050565b6101c28361018d565b6101d66101ce826101af565b848454610127565b825550505050565b600090565b6101eb6101de565b6101f68184846101b9565b505050565b5b8181101561021a5761020f6000826101e3565b6001810190506101fc565b5050565b601f82111561025f57610230816100f5565b6102398461010a565b81016020851015610248578190505b61025c6102548561010a565b8301826101fb565b50505b505050565b600082821c905092915050565b600061028260001984600802610264565b1980831691505092915050565b600061029b8383610271565b9150826002028217905092915050565b6102b48261005b565b67ffffffffffffffff8111156102cd576102cc610066565b5b6102d782546100c4565b6102e282828561021e565b600060209050601f8311600181146103155760008415610303578287015190505b61030d858261028f565b865550610375565b601f198416610323866100f5565b60005b8281101561034b57848901518255600182019150602085019450602081019050610326565b868310156103685784890151610364601f891682610271565b8355505b6001600288020188555050505b505050505050565b6103428061038c6000396000f3fe608060405234801561001057600080fd5b50600436106100415760003560e01c806306fdde031461004657806317d7de7c146100645780633c85ad0114610082575b600080fd5b61004e6100a0565b60405161005b9190610256565b60405180910390f35b61006c61012e565b6040516100799190610256565b60405180910390f35b61008a6101c0565b6040516100979190610291565b60405180910390f35b600180546100ad906102db565b80601f01602080910402602001604051908101604052809291908181526020018280546100d9906102db565b80156101265780601f106100fb57610100808354040283529160200191610126565b820191906000526020600020905b81548152906001019060200180831161010957829003601f168201915b505050505081565b60606001805461013d906102db565b80601f0160208091040260200160405190810160405280929190818152602001828054610169906102db565b80156101b65780601f1061018b576101008083540402835291602001916101b6565b820191906000526020600020905b81548152906001019060200180831161019957829003601f168201915b5050505050905090565b60005481565b600081519050919050565b600082825260208201905092915050565b60005b838110156102005780820151818401526020810190506101e5565b60008484015250505050565b6000601f19601f8301169050919050565b6000610228826101c6565b61023281856101d1565b93506102428185602086016101e2565b61024b8161020c565b840191505092915050565b60006020820190508181036000830152610270818461021d565b905092915050565b6000819050919050565b61028b81610278565b82525050565b60006020820190506102a66000830184610282565b92915050565b7f4e487b7100000000000000000000000000000000000000000000000000000000600052602260045260246000fd5b600060028204905060018216806102f357607f821691505b602082108103610306576103056102ac565b5b5091905056fea26469706673582212207e350b7ace49e8ae4a1f7432d91ede3c430c82e8b79659ecb6ab7a02805467a064736f6c63430008110033",
  "immutableReferences": {},
  "source": "// SPDX-License-Identifier: GPL-30\n\npragma solidity >= 0.7.0 < 0.9.0;\n\ncontract Lec1 {\n\n    string public hi = \"Hello Solidity2223234\";\n\n}\n\n\ncontract Lec2 {\n\n    uint256 public testId;\n\n    string public name = \"Hello Contract\";\n\n\n    function getName() public returns(string memory) {\n        return name;\n    }\n}",
  "sourcePath": "/Users/ziofront/workspace/vscode_workspace/study_solidity/contracts/NewContract.sol",
  "compiler": {
    "name": "solc",
    "version": "0.8.17+commit.8df45f5f.Emscripten.clang"
  },
  "schemaVersion": "3.4.7",
  "updatedAt": "2022-11-10T07:44:23.157Z",
  "devdoc": {
    "kind": "dev",
    "methods": {},
    "version": 1
  },
  "userdoc": {
    "kind": "user",
    "methods": {},
    "version": 1
  }
}