{
  "contractName": "Test001",
  "abi": [
    {
      "inputs": [],
      "name": "age",
      "outputs": [
        {
          "internalType": "uint256",
          "name": "",
          "type": "uint256"
        }
      ],
      "stateMutability": "view",
      "type": "function"
    },
    {
      "inputs": [],
      "name": "name",
      "outputs": [
        {
          "internalType": "string",
          "name": "",
          "type": "string"
        }
      ],
      "stateMutability": "view",
      "type": "function"
    },
    {
      "inputs": [
        {
          "internalType": "string",
          "name": "_name",
          "type": "string"
        }
      ],
      "name": "setName",
      "outputs": [],
      "stateMutability": "nonpayable",
      "type": "function"
    },
    {
      "inputs": [
        {
          "internalType": "uint256",
          "name": "_age",
          "type": "uint256"
        }
      ],
      "name": "setAge",
      "outputs": [],
      "stateMutability": "nonpayable",
      "type": "function"
    },
    {
      "inputs": [],
      "name": "getName",
      "outputs": [
        {
          "internalType": "string",
          "name": "",
          "type": "string"
        }
      ],
      "stateMutability": "view",
      "type": "function"
    },
    {
      "inputs": [],
      "name": "getAge",
      "outputs": [
        {
          "internalType": "uint256",
          "name": "",
          "type": "uint256"
        }
      ],
      "stateMutability": "view",
      "type": "function"
    }
  ],
  "bytecode": "0x608060405234801561001057600080fd5b50610849806100206000396000f3fe608060405234801561001057600080fd5b50600436106100625760003560e01c806306fdde031461006757806317d7de7c14610085578063262a9dff146100a3578063967e6e65146100c1578063c47f0027146100df578063d5dcf127146100fb575b600080fd5b61006f610117565b60405161007c91906102f4565b60405180910390f35b61008d6101a5565b60405161009a91906102f4565b60405180910390f35b6100ab610237565b6040516100b8919061032f565b60405180910390f35b6100c961023d565b6040516100d6919061032f565b60405180910390f35b6100f960048036038101906100f49190610493565b610247565b005b61011560048036038101906101109190610508565b61025a565b005b6000805461012490610564565b80601f016020809104026020016040519081016040528092919081815260200182805461015090610564565b801561019d5780601f106101725761010080835404028352916020019161019d565b820191906000526020600020905b81548152906001019060200180831161018057829003601f168201915b505050505081565b6060600080546101b490610564565b80601f01602080910402602001604051908101604052809291908181526020018280546101e090610564565b801561022d5780601f106102025761010080835404028352916020019161022d565b820191906000526020600020905b81548152906001019060200180831161021057829003601f168201915b5050505050905090565b60015481565b6000600154905090565b80600090816102569190610741565b5050565b8060018190555050565b600081519050919050565b600082825260208201905092915050565b60005b8381101561029e578082015181840152602081019050610283565b60008484015250505050565b6000601f19601f8301169050919050565b60006102c682610264565b6102d0818561026f565b93506102e0818560208601610280565b6102e9816102aa565b840191505092915050565b6000602082019050818103600083015261030e81846102bb565b905092915050565b6000819050919050565b61032981610316565b82525050565b60006020820190506103446000830184610320565b92915050565b6000604051905090565b600080fd5b600080fd5b600080fd5b600080fd5b7f4e487b7100000000000000000000000000000000000000000000000000000000600052604160045260246000fd5b6103a0826102aa565b810181811067ffffffffffffffff821117156103bf576103be610368565b5b80604052505050565b60006103d261034a565b90506103de8282610397565b919050565b600067ffffffffffffffff8211156103fe576103fd610368565b5b610407826102aa565b9050602081019050919050565b82818337600083830152505050565b6000610436610431846103e3565b6103c8565b90508281526020810184848401111561045257610451610363565b5b61045d848285610414565b509392505050565b600082601f83011261047a5761047961035e565b5b813561048a848260208601610423565b91505092915050565b6000602082840312156104a9576104a8610354565b5b600082013567ffffffffffffffff8111156104c7576104c6610359565b5b6104d384828501610465565b91505092915050565b6104e581610316565b81146104f057600080fd5b50565b600081359050610502816104dc565b92915050565b60006020828403121561051e5761051d610354565b5b600061052c848285016104f3565b91505092915050565b7f4e487b7100000000000000000000000000000000000000000000000000000000600052602260045260246000fd5b6000600282049050600182168061057c57607f821691505b60208210810361058f5761058e610535565b5b50919050565b60008190508160005260206000209050919050565b60006020601f8301049050919050565b600082821b905092915050565b6000600883026105f77fffffffffffffffffffffffffffffffffffffffffffffffffffffffffffffffff826105ba565b61060186836105ba565b95508019841693508086168417925050509392505050565b6000819050919050565b600061063e61063961063484610316565b610619565b610316565b9050919050565b6000819050919050565b61065883610623565b61066c61066482610645565b8484546105c7565b825550505050565b600090565b610681610674565b61068c81848461064f565b505050565b5b818110156106b0576106a5600082610679565b600181019050610692565b5050565b601f8211156106f5576106c681610595565b6106cf846105aa565b810160208510156106de578190505b6106f26106ea856105aa565b830182610691565b50505b505050565b600082821c905092915050565b6000610718600019846008026106fa565b1980831691505092915050565b60006107318383610707565b9150826002028217905092915050565b61074a82610264565b67ffffffffffffffff81111561076357610762610368565b5b61076d8254610564565b6107788282856106b4565b600060209050601f8311600181146107ab5760008415610799578287015190505b6107a38582610725565b86555061080b565b601f1984166107b986610595565b60005b828110156107e1578489015182556001820191506020850194506020810190506107bc565b868310156107fe57848901516107fa601f891682610707565b8355505b6001600288020188555050505b50505050505056fea26469706673582212207ae5d04b88f4ecdbcc5f5633575b8e6a78eec306365344af89174cf2fd0aba1364736f6c63430008110033",
  "immutableReferences": {},
  "source": "// SPDX-License-Identifier: GPL-30\n\npragma solidity >= 0.7.0 < 0.9.0;\n\ncontract Test001 {\n\n    string public name;\n    uint256 public age;\n\n    function setName(string memory _name) public {\n        name = _name;\n    }\n\n    function setAge(uint _age) public {\n        age = _age;\n    }\n\n    function getName() public view returns(string memory) {\n        return name;\n    }\n\n    function getAge() public view returns(uint256) {\n        return age;\n    }\n\n}\n\ncontract Test002 {\n\n    string public homeAddress;\n    string public phoneNumber;\n\n    \n}",
  "sourcePath": "/Users/ziofront/workspace/vscode_workspace/study_solidity/contracts/TestContracts.sol",
  "compiler": {
    "name": "solc",
    "version": "0.8.17+commit.8df45f5f.Emscripten.clang"
  },
  "schemaVersion": "3.4.7",
  "updatedAt": "2022-11-14T01:28:40.307Z",
  "devdoc": {
    "kind": "dev",
    "methods": {},
    "version": 1
  },
  "userdoc": {
    "kind": "user",
    "methods": {},
    "version": 1
  }
}